{"abi":[{"type":"constructor","inputs":[{"name":"_monitoredWallet","type":"address","internalType":"address"},{"name":"_dropThreshold","type":"uint256","internalType":"uint256"},{"name":"_minBalance","type":"uint256","internalType":"uint256"}],"stateMutability":"nonpayable"},{"type":"function","name":"calculateTriggerBalance","inputs":[{"name":"currentBalance","type":"uint256","internalType":"uint256"}],"outputs":[{"name":"","type":"uint256","internalType":"uint256"}],"stateMutability":"view"},{"type":"function","name":"collect","inputs":[],"outputs":[{"name":"","type":"uint256","internalType":"uint256"}],"stateMutability":"view"},{"type":"function","name":"dropThreshold","inputs":[],"outputs":[{"name":"","type":"uint256","internalType":"uint256"}],"stateMutability":"view"},{"type":"function","name":"getMonitoringInfo","inputs":[],"outputs":[{"name":"currentBalance","type":"uint256","internalType":"uint256"},{"name":"triggerThreshold","type":"uint256","internalType":"uint256"},{"name":"minimumBalance","type":"uint256","internalType":"uint256"},{"name":"isAboveMinimum","type":"bool","internalType":"bool"}],"stateMutability":"view"},{"type":"function","name":"minBalance","inputs":[],"outputs":[{"name":"","type":"uint256","internalType":"uint256"}],"stateMutability":"view"},{"type":"function","name":"monitoredWallet","inputs":[],"outputs":[{"name":"","type":"address","internalType":"address"}],"stateMutability":"view"},{"type":"function","name":"shouldRespond","inputs":[{"name":"data","type":"uint256[]","internalType":"uint256[]"}],"outputs":[{"name":"","type":"bool","internalType":"bool"}],"stateMutability":"view"},{"type":"event","name":"TrapDeployed","inputs":[{"name":"wallet","type":"address","indexed":true,"internalType":"address"},{"name":"threshold","type":"uint256","indexed":false,"internalType":"uint256"},{"name":"minBalance","type":"uint256","indexed":false,"internalType":"uint256"}],"anonymous":false}],"bytecode":{"object":"0x60e060405234801561000f575f5ffd5b50604051610a27380380610a278339818101604052810190610031919061015e565b8273ffffffffffffffffffffffffffffffffffffffff1660808173ffffffffffffffffffffffffffffffffffffffff16815250508160a081815250508060c081815250508273ffffffffffffffffffffffffffffffffffffffff167f9ae27e177ae99d8bb6a8f4d4ffe938831ef9e12dd9a7d833a8f203e4e201e0cc83836040516100bd9291906101bd565b60405180910390a25050506101e4565b5f5ffd5b5f73ffffffffffffffffffffffffffffffffffffffff82169050919050565b5f6100fa826100d1565b9050919050565b61010a816100f0565b8114610114575f5ffd5b50565b5f8151905061012581610101565b92915050565b5f819050919050565b61013d8161012b565b8114610147575f5ffd5b50565b5f8151905061015881610134565b92915050565b5f5f5f60608486031215610175576101746100cd565b5b5f61018286828701610117565b93505060206101938682870161014a565b92505060406101a48682870161014a565b9150509250925092565b6101b78161012b565b82525050565b5f6040820190506101d05f8301856101ae565b6101dd60208301846101ae565b9392505050565b60805160a05160c0516107da61024d5f395f818161017b015281816102690152818161036101528181610424015261044701525f81816101af015281816102e80152818161033d015261040101525f81816103190152818161038601526103c701526107da5ff3fe608060405234801561000f575f5ffd5b506004361061007b575f3560e01c8063be5ed58611610059578063be5ed586146100fd578063c5bb87581461011b578063e522538114610139578063e802c2ca146101575761007b565b8063088c7be61461007f578063697e4643146100af5780638e090e91146100df575b5f5ffd5b610099600480360381019061009491906104ac565b610178565b6040516100a691906104e6565b60405180910390f35b6100c960048036038101906100c49190610560565b6101fa565b6040516100d691906105c5565b60405180910390f35b6100e7610317565b6040516100f4919061061d565b60405180910390f35b61010561033b565b60405161011291906104e6565b60405180910390f35b61012361035f565b60405161013091906104e6565b60405180910390f35b610141610383565b60405161014e91906104e6565b60405180910390f35b61015f6103c1565b60405161016f9493929190610636565b60405180910390f35b5f7f00000000000000000000000000000000000000000000000000000000000000008210156101a9575f90506101f5565b5f6127107f0000000000000000000000000000000000000000000000000000000000000000846101d991906106a6565b6101e39190610714565b905080836101f19190610744565b9150505b919050565b5f600283839050101561020f575f9050610311565b5f83836001868690506102229190610744565b81811061023257610231610777565b5b9050602002013590505f848460028787905061024e9190610744565b81811061025e5761025d610777565b5b9050602002013590507f0000000000000000000000000000000000000000000000000000000000000000811015610299575f92505050610311565b5f81036102aa575f92505050610311565b8082106102bb575f92505050610311565b5f82826102c89190610744565b90505f82612710836102da91906106a6565b6102e49190610714565b90507f00000000000000000000000000000000000000000000000000000000000000008110159450505050505b92915050565b7f000000000000000000000000000000000000000000000000000000000000000081565b7f000000000000000000000000000000000000000000000000000000000000000081565b7f000000000000000000000000000000000000000000000000000000000000000081565b5f7f000000000000000000000000000000000000000000000000000000000000000073ffffffffffffffffffffffffffffffffffffffff1631905090565b5f5f5f5f7f000000000000000000000000000000000000000000000000000000000000000073ffffffffffffffffffffffffffffffffffffffff163193507f000000000000000000000000000000000000000000000000000000000000000092507f000000000000000000000000000000000000000000000000000000000000000091507f0000000000000000000000000000000000000000000000000000000000000000841015905090919293565b5f5ffd5b5f5ffd5b5f819050919050565b61048b81610479565b8114610495575f5ffd5b50565b5f813590506104a681610482565b92915050565b5f602082840312156104c1576104c0610471565b5b5f6104ce84828501610498565b91505092915050565b6104e081610479565b82525050565b5f6020820190506104f95f8301846104d7565b92915050565b5f5ffd5b5f5ffd5b5f5ffd5b5f5f83601f8401126105205761051f6104ff565b5b8235905067ffffffffffffffff81111561053d5761053c610503565b5b60208301915083602082028301111561055957610558610507565b5b9250929050565b5f5f6020838503121561057657610575610471565b5b5f83013567ffffffffffffffff81111561059357610592610475565b5b61059f8582860161050b565b92509250509250929050565b5f8115159050919050565b6105bf816105ab565b82525050565b5f6020820190506105d85f8301846105b6565b92915050565b5f73ffffffffffffffffffffffffffffffffffffffff82169050919050565b5f610607826105de565b9050919050565b610617816105fd565b82525050565b5f6020820190506106305f83018461060e565b92915050565b5f6080820190506106495f8301876104d7565b61065660208301866104d7565b61066360408301856104d7565b61067060608301846105b6565b95945050505050565b7f4e487b71000000000000000000000000000000000000000000000000000000005f52601160045260245ffd5b5f6106b082610479565b91506106bb83610479565b92508282026106c981610479565b915082820484148315176106e0576106df610679565b5b5092915050565b7f4e487b71000000000000000000000000000000000000000000000000000000005f52601260045260245ffd5b5f61071e82610479565b915061072983610479565b925082610739576107386106e7565b5b828204905092915050565b5f61074e82610479565b915061075983610479565b925082820390508181111561077157610770610679565b5b92915050565b7f4e487b71000000000000000000000000000000000000000000000000000000005f52603260045260245ffdfea2646970667358221220d4b9f477678ad30d907385f0d791d1e45c84b97f66c51d7152ae87ab1dbb56a864736f6c634300081e0033","linkReferences":{}},"methodIdentifiers":{"calculateTriggerBalance(uint256)":"088c7be6","collect()":"e5225381","dropThreshold()":"be5ed586","getMonitoringInfo()":"e802c2ca","minBalance()":"c5bb8758","monitoredWallet()":"8e090e91","shouldRespond(uint256[])":"697e4643"},"id":24}