{"abi":[{"type":"function","name":"alertCountByWallet","inputs":[{"name":"","type":"address","internalType":"address"}],"outputs":[{"name":"","type":"uint256","internalType":"uint256"}],"stateMutability":"view"},{"type":"function","name":"alerts","inputs":[{"name":"","type":"uint256","internalType":"uint256"}],"outputs":[{"name":"monitoredWallet","type":"address","internalType":"address"},{"name":"previousBalance","type":"uint256","internalType":"uint256"},{"name":"currentBalance","type":"uint256","internalType":"uint256"},{"name":"dropPercentage","type":"uint256","internalType":"uint256"},{"name":"timestamp","type":"uint256","internalType":"uint256"},{"name":"blockNumber","type":"uint256","internalType":"uint256"},{"name":"message","type":"string","internalType":"string"}],"stateMutability":"view"},{"type":"function","name":"getAlertCount","inputs":[],"outputs":[{"name":"","type":"uint256","internalType":"uint256"}],"stateMutability":"view"},{"type":"function","name":"getLatestAlert","inputs":[],"outputs":[{"name":"","type":"tuple","internalType":"struct ETHBalanceAlertLogger.AlertLog","components":[{"name":"monitoredWallet","type":"address","internalType":"address"},{"name":"previousBalance","type":"uint256","internalType":"uint256"},{"name":"currentBalance","type":"uint256","internalType":"uint256"},{"name":"dropPercentage","type":"uint256","internalType":"uint256"},{"name":"timestamp","type":"uint256","internalType":"uint256"},{"name":"blockNumber","type":"uint256","internalType":"uint256"},{"name":"message","type":"string","internalType":"string"}]}],"stateMutability":"view"},{"type":"function","name":"logETHDropAlert","inputs":[{"name":"wallet","type":"address","internalType":"address"},{"name":"previousBalance","type":"uint256","internalType":"uint256"},{"name":"currentBalance","type":"uint256","internalType":"uint256"},{"name":"message","type":"string","internalType":"string"}],"outputs":[],"stateMutability":"nonpayable"},{"type":"event","name":"ETHDropAlert","inputs":[{"name":"monitoredWallet","type":"address","indexed":true,"internalType":"address"},{"name":"previousBalance","type":"uint256","indexed":false,"internalType":"uint256"},{"name":"currentBalance","type":"uint256","indexed":false,"internalType":"uint256"},{"name":"dropPercentage","type":"uint256","indexed":false,"internalType":"uint256"},{"name":"message","type":"string","indexed":false,"internalType":"string"},{"name":"alertId","type":"uint256","indexed":true,"internalType":"uint256"}],"anonymous":false}],"bytecode":{"object":"0x6080604052348015600e575f5ffd5b50610ffb8061001c5f395ff3fe608060405234801561000f575f5ffd5b5060043610610055575f3560e01c80630eb486671461005957806312670d4a14610075578063171d073a1461009357806340411fc8146100c9578063f2aa8b5e146100e7575b5f5ffd5b610073600480360381019061006e9190610758565b610117565b005b61007d610361565b60405161008a9190610903565b60405180910390f35b6100ad60048036038101906100a89190610923565b610504565b6040516100c097969594939291906109b4565b60405180910390f35b6100d16105f5565b6040516100de9190610a28565b60405180910390f35b61010160048036038101906100fc9190610a41565b610600565b60405161010e9190610a28565b60405180910390f35b5f5f90505f8511801561012957508484105b1561015a575f848661013b9190610a99565b9050856127108261014c9190610acc565b6101569190610b3a565b9150505b5f6040518060e001604052808873ffffffffffffffffffffffffffffffffffffffff16815260200187815260200186815260200183815260200142815260200143815260200185858080601f0160208091040260200160405190810160405280939291908181526020018383808284375f81840152601f19601f8201169050808301925050505050505081525090505f81908060018154018082558091505060019003905f5260205f2090600702015f909190919091505f820151815f015f6101000a81548173ffffffffffffffffffffffffffffffffffffffff021916908373ffffffffffffffffffffffffffffffffffffffff1602179055506020820151816001015560408201518160020155606082015181600301556080820151816004015560a0820151816005015560c082015181600601908161029c9190610d94565b50505060015f8873ffffffffffffffffffffffffffffffffffffffff1673ffffffffffffffffffffffffffffffffffffffff1681526020019081526020015f205f8154809291906102ec90610e63565b919050555060015f805490506103029190610a99565b8773ffffffffffffffffffffffffffffffffffffffff167f0a48db3081e47a907ab4f1aaadcf11b5f5e35eba2f2216da3cd3628e1fbe22888888868989604051610350959493929190610ee4565b60405180910390a350505050505050565b610369610615565b5f5f80549050116103af576040517f08c379a00000000000000000000000000000000000000000000000000000000081526004016103a690610f7a565b60405180910390fd5b5f60015f805490506103c19190610a99565b815481106103d2576103d1610f98565b5b905f5260205f2090600702016040518060e00160405290815f82015f9054906101000a900473ffffffffffffffffffffffffffffffffffffffff1673ffffffffffffffffffffffffffffffffffffffff1673ffffffffffffffffffffffffffffffffffffffff168152602001600182015481526020016002820154815260200160038201548152602001600482015481526020016005820154815260200160068201805461047f90610bc4565b80601f01602080910402602001604051908101604052809291908181526020018280546104ab90610bc4565b80156104f65780601f106104cd576101008083540402835291602001916104f6565b820191905f5260205f20905b8154815290600101906020018083116104d957829003601f168201915b505050505081525050905090565b5f8181548110610512575f80fd5b905f5260205f2090600702015f91509050805f015f9054906101000a900473ffffffffffffffffffffffffffffffffffffffff169080600101549080600201549080600301549080600401549080600501549080600601805461057490610bc4565b80601f01602080910402602001604051908101604052809291908181526020018280546105a090610bc4565b80156105eb5780601f106105c2576101008083540402835291602001916105eb565b820191905f5260205f20905b8154815290600101906020018083116105ce57829003601f168201915b5050505050905087565b5f5f80549050905090565b6001602052805f5260405f205f915090505481565b6040518060e001604052805f73ffffffffffffffffffffffffffffffffffffffff1681526020015f81526020015f81526020015f81526020015f81526020015f8152602001606081525090565b5f5ffd5b5f5ffd5b5f73ffffffffffffffffffffffffffffffffffffffff82169050919050565b5f6106938261066a565b9050919050565b6106a381610689565b81146106ad575f5ffd5b50565b5f813590506106be8161069a565b92915050565b5f819050919050565b6106d6816106c4565b81146106e0575f5ffd5b50565b5f813590506106f1816106cd565b92915050565b5f5ffd5b5f5ffd5b5f5ffd5b5f5f83601f840112610718576107176106f7565b5b8235905067ffffffffffffffff811115610735576107346106fb565b5b602083019150836001820283011115610751576107506106ff565b5b9250929050565b5f5f5f5f5f6080868803121561077157610770610662565b5b5f61077e888289016106b0565b955050602061078f888289016106e3565b94505060406107a0888289016106e3565b935050606086013567ffffffffffffffff8111156107c1576107c0610666565b5b6107cd88828901610703565b92509250509295509295909350565b6107e581610689565b82525050565b6107f4816106c4565b82525050565b5f81519050919050565b5f82825260208201905092915050565b8281835e5f83830152505050565b5f601f19601f8301169050919050565b5f61083c826107fa565b6108468185610804565b9350610856818560208601610814565b61085f81610822565b840191505092915050565b5f60e083015f83015161087f5f8601826107dc565b50602083015161089260208601826107eb565b5060408301516108a560408601826107eb565b5060608301516108b860608601826107eb565b5060808301516108cb60808601826107eb565b5060a08301516108de60a08601826107eb565b5060c083015184820360c08601526108f68282610832565b9150508091505092915050565b5f6020820190508181035f83015261091b818461086a565b905092915050565b5f6020828403121561093857610937610662565b5b5f610945848285016106e3565b91505092915050565b61095781610689565b82525050565b610966816106c4565b82525050565b5f82825260208201905092915050565b5f610986826107fa565b610990818561096c565b93506109a0818560208601610814565b6109a981610822565b840191505092915050565b5f60e0820190506109c75f83018a61094e565b6109d4602083018961095d565b6109e1604083018861095d565b6109ee606083018761095d565b6109fb608083018661095d565b610a0860a083018561095d565b81810360c0830152610a1a818461097c565b905098975050505050505050565b5f602082019050610a3b5f83018461095d565b92915050565b5f60208284031215610a5657610a55610662565b5b5f610a63848285016106b0565b91505092915050565b7f4e487b71000000000000000000000000000000000000000000000000000000005f52601160045260245ffd5b5f610aa3826106c4565b9150610aae836106c4565b9250828203905081811115610ac657610ac5610a6c565b5b92915050565b5f610ad6826106c4565b9150610ae1836106c4565b9250828202610aef816106c4565b91508282048414831517610b0657610b05610a6c565b5b5092915050565b7f4e487b71000000000000000000000000000000000000000000000000000000005f52601260045260245ffd5b5f610b44826106c4565b9150610b4f836106c4565b925082610b5f57610b5e610b0d565b5b828204905092915050565b7f4e487b71000000000000000000000000000000000000000000000000000000005f52604160045260245ffd5b7f4e487b71000000000000000000000000000000000000000000000000000000005f52602260045260245ffd5b5f6002820490506001821680610bdb57607f821691505b602082108103610bee57610bed610b97565b5b50919050565b5f819050815f5260205f209050919050565b5f6020601f8301049050919050565b5f82821b905092915050565b5f60088302610c507fffffffffffffffffffffffffffffffffffffffffffffffffffffffffffffffff82610c15565b610c5a8683610c15565b95508019841693508086168417925050509392505050565b5f819050919050565b5f610c95610c90610c8b846106c4565b610c72565b6106c4565b9050919050565b5f819050919050565b610cae83610c7b565b610cc2610cba82610c9c565b848454610c21565b825550505050565b5f5f905090565b610cd9610cca565b610ce4818484610ca5565b505050565b5b81811015610d0757610cfc5f82610cd1565b600181019050610cea565b5050565b601f821115610d4c57610d1d81610bf4565b610d2684610c06565b81016020851015610d35578190505b610d49610d4185610c06565b830182610ce9565b50505b505050565b5f82821c905092915050565b5f610d6c5f1984600802610d51565b1980831691505092915050565b5f610d848383610d5d565b9150826002028217905092915050565b610d9d826107fa565b67ffffffffffffffff811115610db657610db5610b6a565b5b610dc08254610bc4565b610dcb828285610d0b565b5f60209050601f831160018114610dfc575f8415610dea578287015190505b610df48582610d79565b865550610e5b565b601f198416610e0a86610bf4565b5f5b82811015610e3157848901518255600182019150602085019450602081019050610e0c565b86831015610e4e5784890151610e4a601f891682610d5d565b8355505b6001600288020188555050505b505050505050565b5f610e6d826106c4565b91507fffffffffffffffffffffffffffffffffffffffffffffffffffffffffffffffff8203610e9f57610e9e610a6c565b5b600182019050919050565b828183375f83830152505050565b5f610ec3838561096c565b9350610ed0838584610eaa565b610ed983610822565b840190509392505050565b5f608082019050610ef75f83018861095d565b610f04602083018761095d565b610f11604083018661095d565b8181036060830152610f24818486610eb8565b90509695505050505050565b7f4e6f20616c6572747320796574000000000000000000000000000000000000005f82015250565b5f610f64600d8361096c565b9150610f6f82610f30565b602082019050919050565b5f6020820190508181035f830152610f9181610f58565b9050919050565b7f4e487b71000000000000000000000000000000000000000000000000000000005f52603260045260245ffdfea264697066735822122072820f3101cdb726a830cc2c496e28647ac3e98b4c2c3b732d9358910447b4b664736f6c634300081e0033","linkReferences":{}},"methodIdentifiers":{"alertCountByWallet(address)":"f2aa8b5e","alerts(uint256)":"171d073a","getAlertCount()":"40411fc8","getLatestAlert()":"12670d4a","logETHDropAlert(address,uint256,uint256,string)":"0eb48667"},"id":23}