{"abi":[{"type":"constructor","inputs":[{"name":"_logger","type":"address","internalType":"address"}],"stateMutability":"nonpayable"},{"type":"function","name":"getAlertBasics","inputs":[{"name":"alertId","type":"uint256","internalType":"uint256"}],"outputs":[{"name":"wallet","type":"address","internalType":"address"},{"name":"prevBalance","type":"uint256","internalType":"uint256"},{"name":"currBalance","type":"uint256","internalType":"uint256"},{"name":"dropPercent","type":"uint256","internalType":"uint256"},{"name":"blockNum","type":"uint256","internalType":"uint256"}],"stateMutability":"view"},{"type":"function","name":"getBalanceStrings","inputs":[{"name":"weiAmount","type":"uint256","internalType":"uint256"}],"outputs":[{"name":"ethAmount","type":"string","internalType":"string"},{"name":"weiAmount_str","type":"string","internalType":"string"}],"stateMutability":"pure"},{"type":"function","name":"getDropPercentString","inputs":[{"name":"basisPoints","type":"uint256","internalType":"uint256"}],"outputs":[{"name":"","type":"string","internalType":"string"}],"stateMutability":"pure"},{"type":"function","name":"getTrapStats","inputs":[],"outputs":[{"name":"totalAlerts","type":"uint256","internalType":"uint256"},{"name":"status","type":"string","internalType":"string"}],"stateMutability":"view"},{"type":"function","name":"getWalletAlertCount","inputs":[{"name":"wallet","type":"address","internalType":"address"}],"outputs":[{"name":"","type":"uint256","internalType":"uint256"}],"stateMutability":"view"},{"type":"function","name":"hasAlerts","inputs":[],"outputs":[{"name":"","type":"bool","internalType":"bool"}],"stateMutability":"view"},{"type":"function","name":"logger","inputs":[],"outputs":[{"name":"","type":"address","internalType":"contract ETHBalanceAlertLogger"}],"stateMutability":"view"}],"bytecode":{"object":"0x60a060405234801561000f575f5ffd5b506040516111d03803806111d0833981810160405281019061003191906100c9565b8073ffffffffffffffffffffffffffffffffffffffff1660808173ffffffffffffffffffffffffffffffffffffffff1681525050506100f4565b5f5ffd5b5f73ffffffffffffffffffffffffffffffffffffffff82169050919050565b5f6100988261006f565b9050919050565b6100a88161008e565b81146100b2575f5ffd5b50565b5f815190506100c38161009f565b92915050565b5f602082840312156100de576100dd61006b565b5b5f6100eb848285016100b5565b91505092915050565b6080516110a86101285f395f81816101a3015281816102e3015281816103a20152818161049601526105cb01526110a85ff3fe608060405234801561000f575f5ffd5b506004361061007b575f3560e01c806376d02db31161005957806376d02db31461010257806397cb29cf14610121578063b31324b214610151578063f24ccbfe146101815761007b565b8063251221e21461007f5780632e67ca651461009d5780635d7d6cec146100ce575b5f5ffd5b61008761019f565b6040516100949190610760565b60405180910390f35b6100b760048036038101906100b291906107bd565b610234565b6040516100c5929190610858565b60405180910390f35b6100e860048036038101906100e391906107bd565b6102dc565b6040516100f99594939291906108db565b60405180910390f35b61010a61039d565b60405161011892919061092c565b60405180910390f35b61013b60048036038101906101369190610984565b610493565b60405161014891906109af565b60405180910390f35b61016b600480360381019061016691906107bd565b610533565b60405161017891906109c8565b60405180910390f35b6101896105c9565b6040516101969190610a43565b60405180910390f35b5f5f7f000000000000000000000000000000000000000000000000000000000000000073ffffffffffffffffffffffffffffffffffffffff166340411fc86040518163ffffffff1660e01b8152600401602060405180830381865afa15801561020a573d5f5f3e3d5ffd5b505050506040513d601f19601f8201168201806040525081019061022e9190610a70565b11905090565b6060805f670de0b6b3a76400008461024c9190610af5565b90505f66038d7ea4c68000670de0b6b3a76400008661026b9190610b25565b6102759190610af5565b9050610280826105ed565b610289826105ed565b60405160200161029a929190610c23565b60405160208183030381529060405293506102b4856105ed565b6040516020016102c49190610ca6565b60405160208183030381529060405292505050915091565b5f5f5f5f5f7f000000000000000000000000000000000000000000000000000000000000000073ffffffffffffffffffffffffffffffffffffffff1663171d073a876040518263ffffffff1660e01b815260040161033a91906109af565b5f60405180830381865afa158015610354573d5f5f3e3d5ffd5b505050506040513d5f823e3d601f19601f8201168201806040525081019061037c9190610df9565b90915050809550819650829750839850849950505050505091939590929450565b5f60607f000000000000000000000000000000000000000000000000000000000000000073ffffffffffffffffffffffffffffffffffffffff166340411fc86040518163ffffffff1660e01b8152600401602060405180830381865afa158015610409573d5f5f3e3d5ffd5b505050506040513d601f19601f8201168201806040525081019061042d9190610a70565b91505f82036104565760405180606001604052806029815260200161104a60299139905061048f565b6040518060400160405280601881526020017f414354495645202d20414c45525453204445544543544544000000000000000081525090505b9091565b5f7f000000000000000000000000000000000000000000000000000000000000000073ffffffffffffffffffffffffffffffffffffffff1663f2aa8b5e836040518263ffffffff1660e01b81526004016104ed9190610eb2565b602060405180830381865afa158015610508573d5f5f3e3d5ffd5b505050506040513d601f19601f8201168201806040525081019061052c9190610a70565b9050919050565b60605f6064836105439190610af5565b90505f6064846105539190610b25565b90505f810361058d57610565826105ed565b6040516020016105759190610f15565b604051602081830303815290604052925050506105c4565b610596826105ed565b61059f826105ed565b6040516020016105b0929190610f36565b604051602081830303815290604052925050505b919050565b7f000000000000000000000000000000000000000000000000000000000000000081565b60605f8203610633576040518060400160405280600181526020017f30000000000000000000000000000000000000000000000000000000000000008152509050610741565b5f8290505f5b5f821461066257808061064b90610f6f565b915050600a8261065b9190610af5565b9150610639565b5f8167ffffffffffffffff81111561067d5761067c610ce3565b5b6040519080825280601f01601f1916602001820160405280156106af5781602001600182028036833780820191505090505b5090505b5f851461073a576001826106c79190610fb6565b9150600a856106d69190610b25565b60306106e29190610fe9565b60f81b8183815181106106f8576106f761101c565b5b60200101907effffffffffffffffffffffffffffffffffffffffffffffffffffffffffffff191690815f1a905350600a856107339190610af5565b94506106b3565b8093505050505b919050565b5f8115159050919050565b61075a81610746565b82525050565b5f6020820190506107735f830184610751565b92915050565b5f604051905090565b5f5ffd5b5f5ffd5b5f819050919050565b61079c8161078a565b81146107a6575f5ffd5b50565b5f813590506107b781610793565b92915050565b5f602082840312156107d2576107d1610782565b5b5f6107df848285016107a9565b91505092915050565b5f81519050919050565b5f82825260208201905092915050565b8281835e5f83830152505050565b5f601f19601f8301169050919050565b5f61082a826107e8565b61083481856107f2565b9350610844818560208601610802565b61084d81610810565b840191505092915050565b5f6040820190508181035f8301526108708185610820565b905081810360208301526108848184610820565b90509392505050565b5f73ffffffffffffffffffffffffffffffffffffffff82169050919050565b5f6108b68261088d565b9050919050565b6108c6816108ac565b82525050565b6108d58161078a565b82525050565b5f60a0820190506108ee5f8301886108bd565b6108fb60208301876108cc565b61090860408301866108cc565b61091560608301856108cc565b61092260808301846108cc565b9695505050505050565b5f60408201905061093f5f8301856108cc565b81810360208301526109518184610820565b90509392505050565b610963816108ac565b811461096d575f5ffd5b50565b5f8135905061097e8161095a565b92915050565b5f6020828403121561099957610998610782565b5b5f6109a684828501610970565b91505092915050565b5f6020820190506109c25f8301846108cc565b92915050565b5f6020820190508181035f8301526109e08184610820565b905092915050565b5f819050919050565b5f610a0b610a06610a018461088d565b6109e8565b61088d565b9050919050565b5f610a1c826109f1565b9050919050565b5f610a2d82610a12565b9050919050565b610a3d81610a23565b82525050565b5f602082019050610a565f830184610a34565b92915050565b5f81519050610a6a81610793565b92915050565b5f60208284031215610a8557610a84610782565b5b5f610a9284828501610a5c565b91505092915050565b7f4e487b71000000000000000000000000000000000000000000000000000000005f52601260045260245ffd5b7f4e487b71000000000000000000000000000000000000000000000000000000005f52601160045260245ffd5b5f610aff8261078a565b9150610b0a8361078a565b925082610b1a57610b19610a9b565b5b828204905092915050565b5f610b2f8261078a565b9150610b3a8361078a565b925082610b4a57610b49610a9b565b5b828206905092915050565b5f81905092915050565b5f610b69826107e8565b610b738185610b55565b9350610b83818560208601610802565b80840191505092915050565b7f2e000000000000000000000000000000000000000000000000000000000000005f82015250565b5f610bc3600183610b55565b9150610bce82610b8f565b600182019050919050565b7f20455448000000000000000000000000000000000000000000000000000000005f82015250565b5f610c0d600483610b55565b9150610c1882610bd9565b600482019050919050565b5f610c2e8285610b5f565b9150610c3982610bb7565b9150610c458284610b5f565b9150610c5082610c01565b91508190509392505050565b7f20776569000000000000000000000000000000000000000000000000000000005f82015250565b5f610c90600483610b55565b9150610c9b82610c5c565b600482019050919050565b5f610cb18284610b5f565b9150610cbc82610c84565b915081905092915050565b5f81519050610cd58161095a565b92915050565b5f5ffd5b5f5ffd5b7f4e487b71000000000000000000000000000000000000000000000000000000005f52604160045260245ffd5b610d1982610810565b810181811067ffffffffffffffff82111715610d3857610d37610ce3565b5b80604052505050565b5f610d4a610779565b9050610d568282610d10565b919050565b5f67ffffffffffffffff821115610d7557610d74610ce3565b5b610d7e82610810565b9050602081019050919050565b5f610d9d610d9884610d5b565b610d41565b905082815260208101848484011115610db957610db8610cdf565b5b610dc4848285610802565b509392505050565b5f82601f830112610de057610ddf610cdb565b5b8151610df0848260208601610d8b565b91505092915050565b5f5f5f5f5f5f5f60e0888a031215610e1457610e13610782565b5b5f610e218a828b01610cc7565b9750506020610e328a828b01610a5c565b9650506040610e438a828b01610a5c565b9550506060610e548a828b01610a5c565b9450506080610e658a828b01610a5c565b93505060a0610e768a828b01610a5c565b92505060c088015167ffffffffffffffff811115610e9757610e96610786565b5b610ea38a828b01610dcc565b91505092959891949750929550565b5f602082019050610ec55f8301846108bd565b92915050565b7f25000000000000000000000000000000000000000000000000000000000000005f82015250565b5f610eff600183610b55565b9150610f0a82610ecb565b600182019050919050565b5f610f208284610b5f565b9150610f2b82610ef3565b915081905092915050565b5f610f418285610b5f565b9150610f4c82610bb7565b9150610f588284610b5f565b9150610f6382610ef3565b91508190509392505050565b5f610f798261078a565b91507fffffffffffffffffffffffffffffffffffffffffffffffffffffffffffffffff8203610fab57610faa610ac8565b5b600182019050919050565b5f610fc08261078a565b9150610fcb8361078a565b9250828203905081811115610fe357610fe2610ac8565b5b92915050565b5f610ff38261078a565b9150610ffe8361078a565b925082820190508082111561101657611015610ac8565b5b92915050565b7f4e487b71000000000000000000000000000000000000000000000000000000005f52603260045260245ffdfe4e4f20414c4552545320594554202d2057414954494e4720464f522046495253542054524947474552a2646970667358221220d415d4e65fe6ddd26c4b38fb05125959abd84a30f08a0c9d9e7ec5536f20734064736f6c634300081e0033","linkReferences":{}},"methodIdentifiers":{"getAlertBasics(uint256)":"5d7d6cec","getBalanceStrings(uint256)":"2e67ca65","getDropPercentString(uint256)":"b31324b2","getTrapStats()":"76d02db3","getWalletAlertCount(address)":"97cb29cf","hasAlerts()":"251221e2","logger()":"f24ccbfe"},"id":1}